{
    "contractName": "MiracleCard",
    "abi": [
        {
            "inputs": [
                {
                    "internalType": "address payable",
                    "name": "payTo",
                    "type": "address"
                }
            ],
            "stateMutability": "nonpayable",
            "type": "constructor"
        },
        {
            "anonymous": false,
            "inputs": [
                {
                    "indexed": true,
                    "internalType": "address",
                    "name": "account",
                    "type": "address"
                },
                {
                    "indexed": true,
                    "internalType": "address",
                    "name": "operator",
                    "type": "address"
                },
                {
                    "indexed": false,
                    "internalType": "bool",
                    "name": "approved",
                    "type": "bool"
                }
            ],
            "name": "ApprovalForAll",
            "type": "event"
        },
        {
            "anonymous": false,
            "inputs": [
                {
                    "indexed": true,
                    "internalType": "address",
                    "name": "toAddress",
                    "type": "address"
                },
                {
                    "indexed": false,
                    "internalType": "uint256",
                    "name": "tokenId",
                    "type": "uint256"
                }
            ],
            "name": "CardCreated",
            "type": "event"
        },
        {
            "anonymous": false,
            "inputs": [
                {
                    "indexed": true,
                    "internalType": "address",
                    "name": "operator",
                    "type": "address"
                },
                {
                    "indexed": true,
                    "internalType": "address",
                    "name": "from",
                    "type": "address"
                },
                {
                    "indexed": true,
                    "internalType": "address",
                    "name": "to",
                    "type": "address"
                },
                {
                    "indexed": false,
                    "internalType": "uint256[]",
                    "name": "ids",
                    "type": "uint256[]"
                },
                {
                    "indexed": false,
                    "internalType": "uint256[]",
                    "name": "values",
                    "type": "uint256[]"
                }
            ],
            "name": "TransferBatch",
            "type": "event"
        },
        {
            "anonymous": false,
            "inputs": [
                {
                    "indexed": true,
                    "internalType": "address",
                    "name": "operator",
                    "type": "address"
                },
                {
                    "indexed": true,
                    "internalType": "address",
                    "name": "from",
                    "type": "address"
                },
                {
                    "indexed": true,
                    "internalType": "address",
                    "name": "to",
                    "type": "address"
                },
                {
                    "indexed": false,
                    "internalType": "uint256",
                    "name": "id",
                    "type": "uint256"
                },
                {
                    "indexed": false,
                    "internalType": "uint256",
                    "name": "value",
                    "type": "uint256"
                }
            ],
            "name": "TransferSingle",
            "type": "event"
        },
        {
            "anonymous": false,
            "inputs": [
                {
                    "indexed": false,
                    "internalType": "string",
                    "name": "value",
                    "type": "string"
                },
                {
                    "indexed": true,
                    "internalType": "uint256",
                    "name": "id",
                    "type": "uint256"
                }
            ],
            "name": "URI",
            "type": "event"
        },
        {
            "inputs": [
                {
                    "internalType": "uint256[]",
                    "name": "cardTypes",
                    "type": "uint256[]"
                },
                {
                    "internalType": "uint256[]",
                    "name": "cardEntrys",
                    "type": "uint256[]"
                },
                {
                    "internalType": "uint256",
                    "name": "star",
                    "type": "uint256"
                },
                {
                    "internalType": "uint256",
                    "name": "dust",
                    "type": "uint256"
                },
                {
                    "internalType": "string",
                    "name": "cardUri",
                    "type": "string"
                }
            ],
            "name": "CreateCardByOwner",
            "outputs": [],
            "stateMutability": "nonpayable",
            "type": "function"
        },
        {
            "inputs": [
                {
                    "internalType": "uint256",
                    "name": "",
                    "type": "uint256"
                }
            ],
            "name": "_entrys",
            "outputs": [
                {
                    "internalType": "uint256",
                    "name": "",
                    "type": "uint256"
                }
            ],
            "stateMutability": "view",
            "type": "function"
        },
        {
            "inputs": [],
            "name": "_entrysLength",
            "outputs": [
                {
                    "internalType": "uint256",
                    "name": "",
                    "type": "uint256"
                }
            ],
            "stateMutability": "view",
            "type": "function"
        },
        {
            "inputs": [
                {
                    "internalType": "address",
                    "name": "account",
                    "type": "address"
                }
            ],
            "name": "allBalance",
            "outputs": [
                {
                    "internalType": "uint256[]",
                    "name": "",
                    "type": "uint256[]"
                }
            ],
            "stateMutability": "view",
            "type": "function"
        },
        {
            "inputs": [],
            "name": "allTokenIds",
            "outputs": [
                {
                    "internalType": "uint256[]",
                    "name": "",
                    "type": "uint256[]"
                }
            ],
            "stateMutability": "view",
            "type": "function"
        },
        {
            "inputs": [
                {
                    "internalType": "address",
                    "name": "account",
                    "type": "address"
                },
                {
                    "internalType": "uint256",
                    "name": "id",
                    "type": "uint256"
                }
            ],
            "name": "balanceOf",
            "outputs": [
                {
                    "internalType": "uint256",
                    "name": "",
                    "type": "uint256"
                }
            ],
            "stateMutability": "view",
            "type": "function"
        },
        {
            "inputs": [
                {
                    "internalType": "address",
                    "name": "owner",
                    "type": "address"
                }
            ],
            "name": "balanceOf",
            "outputs": [
                {
                    "internalType": "uint256",
                    "name": "",
                    "type": "uint256"
                }
            ],
            "stateMutability": "view",
            "type": "function"
        },
        {
            "inputs": [
                {
                    "internalType": "address[]",
                    "name": "accounts",
                    "type": "address[]"
                },
                {
                    "internalType": "uint256[]",
                    "name": "ids",
                    "type": "uint256[]"
                }
            ],
            "name": "balanceOfBatch",
            "outputs": [
                {
                    "internalType": "uint256[]",
                    "name": "",
                    "type": "uint256[]"
                }
            ],
            "stateMutability": "view",
            "type": "function"
        },
        {
            "inputs": [],
            "name": "buyCardPack",
            "outputs": [],
            "stateMutability": "payable",
            "type": "function"
        },
        {
            "inputs": [],
            "name": "buyCardPackCast",
            "outputs": [
                {
                    "internalType": "uint256",
                    "name": "",
                    "type": "uint256"
                }
            ],
            "stateMutability": "view",
            "type": "function"
        },
        {
            "inputs": [
                {
                    "internalType": "address",
                    "name": "fromAddress",
                    "type": "address"
                },
                {
                    "internalType": "uint256[]",
                    "name": "ids",
                    "type": "uint256[]"
                }
            ],
            "name": "cardCanUse",
            "outputs": [
                {
                    "internalType": "bool",
                    "name": "",
                    "type": "bool"
                }
            ],
            "stateMutability": "view",
            "type": "function"
        },
        {
            "inputs": [],
            "name": "cardMaxType",
            "outputs": [
                {
                    "internalType": "uint256",
                    "name": "",
                    "type": "uint256"
                }
            ],
            "stateMutability": "view",
            "type": "function"
        },
        {
            "inputs": [],
            "name": "cardPackBuyerNum",
            "outputs": [
                {
                    "internalType": "uint256",
                    "name": "",
                    "type": "uint256"
                }
            ],
            "stateMutability": "view",
            "type": "function"
        },
        {
            "inputs": [
                {
                    "internalType": "uint256",
                    "name": "cardType",
                    "type": "uint256"
                },
                {
                    "internalType": "uint256[]",
                    "name": "cardEntrys",
                    "type": "uint256[]"
                },
                {
                    "internalType": "string",
                    "name": "tokenUri",
                    "type": "string"
                }
            ],
            "name": "createCard",
            "outputs": [],
            "stateMutability": "payable",
            "type": "function"
        },
        {
            "inputs": [],
            "name": "createCardCast",
            "outputs": [
                {
                    "internalType": "uint256",
                    "name": "",
                    "type": "uint256"
                }
            ],
            "stateMutability": "view",
            "type": "function"
        },
        {
            "inputs": [],
            "name": "decimals",
            "outputs": [
                {
                    "internalType": "uint8",
                    "name": "",
                    "type": "uint8"
                }
            ],
            "stateMutability": "view",
            "type": "function"
        },
        {
            "inputs": [],
            "name": "getMiracleDustTokenAddress",
            "outputs": [
                {
                    "internalType": "address",
                    "name": "",
                    "type": "address"
                }
            ],
            "stateMutability": "view",
            "type": "function"
        },
        {
            "inputs": [],
            "name": "getPayTo",
            "outputs": [
                {
                    "internalType": "address",
                    "name": "",
                    "type": "address"
                }
            ],
            "stateMutability": "view",
            "type": "function"
        },
        {
            "inputs": [
                {
                    "internalType": "uint256",
                    "name": "tokenId",
                    "type": "uint256"
                }
            ],
            "name": "getToken",
            "outputs": [
                {
                    "internalType": "uint256",
                    "name": "id",
                    "type": "uint256"
                },
                {
                    "internalType": "uint256",
                    "name": "star",
                    "type": "uint256"
                },
                {
                    "internalType": "uint256",
                    "name": "tokenVal",
                    "type": "uint256"
                },
                {
                    "internalType": "uint256[]",
                    "name": "cardType",
                    "type": "uint256[]"
                },
                {
                    "internalType": "uint256[]",
                    "name": "cardEntrys",
                    "type": "uint256[]"
                },
                {
                    "internalType": "string",
                    "name": "tokenUri",
                    "type": "string"
                },
                {
                    "internalType": "address",
                    "name": "ownerAddress",
                    "type": "address"
                }
            ],
            "stateMutability": "view",
            "type": "function"
        },
        {
            "inputs": [
                {
                    "internalType": "address",
                    "name": "account",
                    "type": "address"
                },
                {
                    "internalType": "address",
                    "name": "operator",
                    "type": "address"
                }
            ],
            "name": "isApprovedForAll",
            "outputs": [
                {
                    "internalType": "bool",
                    "name": "",
                    "type": "bool"
                }
            ],
            "stateMutability": "view",
            "type": "function"
        },
        {
            "inputs": [
                {
                    "internalType": "address",
                    "name": "_address",
                    "type": "address"
                }
            ],
            "name": "isTrustedAddress",
            "outputs": [
                {
                    "internalType": "bool",
                    "name": "",
                    "type": "bool"
                }
            ],
            "stateMutability": "view",
            "type": "function"
        },
        {
            "inputs": [
                {
                    "internalType": "uint256[]",
                    "name": "useCards",
                    "type": "uint256[]"
                },
                {
                    "internalType": "uint256[]",
                    "name": "lockVal",
                    "type": "uint256[]"
                },
                {
                    "internalType": "address",
                    "name": "lockTo",
                    "type": "address"
                }
            ],
            "name": "lockCardDust",
            "outputs": [],
            "stateMutability": "nonpayable",
            "type": "function"
        },
        {
            "inputs": [],
            "name": "maxBuyCardStar",
            "outputs": [
                {
                    "internalType": "uint256",
                    "name": "",
                    "type": "uint256"
                }
            ],
            "stateMutability": "view",
            "type": "function"
        },
        {
            "inputs": [],
            "name": "maxCardCreateStar",
            "outputs": [
                {
                    "internalType": "uint256",
                    "name": "",
                    "type": "uint256"
                }
            ],
            "stateMutability": "view",
            "type": "function"
        },
        {
            "inputs": [],
            "name": "name",
            "outputs": [
                {
                    "internalType": "string",
                    "name": "",
                    "type": "string"
                }
            ],
            "stateMutability": "view",
            "type": "function"
        },
        {
            "inputs": [],
            "name": "owner",
            "outputs": [
                {
                    "internalType": "address",
                    "name": "",
                    "type": "address"
                }
            ],
            "stateMutability": "view",
            "type": "function"
        },
        {
            "inputs": [
                {
                    "internalType": "uint256",
                    "name": "tokenId",
                    "type": "uint256"
                }
            ],
            "name": "ownerOf",
            "outputs": [
                {
                    "internalType": "address",
                    "name": "",
                    "type": "address"
                }
            ],
            "stateMutability": "view",
            "type": "function"
        },
        {
            "inputs": [],
            "name": "payToToken",
            "outputs": [
                {
                    "internalType": "contract GamePlusToken",
                    "name": "",
                    "type": "address"
                }
            ],
            "stateMutability": "view",
            "type": "function"
        },
        {
            "inputs": [
                {
                    "internalType": "uint256",
                    "name": "",
                    "type": "uint256"
                }
            ],
            "name": "randomPackUris",
            "outputs": [
                {
                    "internalType": "string",
                    "name": "",
                    "type": "string"
                }
            ],
            "stateMutability": "view",
            "type": "function"
        },
        {
            "inputs": [
                {
                    "internalType": "uint256",
                    "name": "tokenId",
                    "type": "uint256"
                },
                {
                    "internalType": "uint256",
                    "name": "num",
                    "type": "uint256"
                }
            ],
            "name": "rechargeCardUseDust",
            "outputs": [],
            "stateMutability": "nonpayable",
            "type": "function"
        },
        {
            "inputs": [
                {
                    "internalType": "uint256[]",
                    "name": "cards",
                    "type": "uint256[]"
                },
                {
                    "internalType": "uint256[]",
                    "name": "rechargeNums",
                    "type": "uint256[]"
                }
            ],
            "name": "rechargeCards",
            "outputs": [],
            "stateMutability": "nonpayable",
            "type": "function"
        },
        {
            "inputs": [
                {
                    "internalType": "address",
                    "name": "_address",
                    "type": "address"
                }
            ],
            "name": "removeTrustedAddress",
            "outputs": [],
            "stateMutability": "nonpayable",
            "type": "function"
        },
        {
            "inputs": [
                {
                    "internalType": "address",
                    "name": "from",
                    "type": "address"
                },
                {
                    "internalType": "address",
                    "name": "to",
                    "type": "address"
                },
                {
                    "internalType": "uint256[]",
                    "name": "ids",
                    "type": "uint256[]"
                },
                {
                    "internalType": "uint256[]",
                    "name": "amounts",
                    "type": "uint256[]"
                },
                {
                    "internalType": "bytes",
                    "name": "data",
                    "type": "bytes"
                }
            ],
            "name": "safeBatchTransferFrom",
            "outputs": [],
            "stateMutability": "nonpayable",
            "type": "function"
        },
        {
            "inputs": [
                {
                    "internalType": "address",
                    "name": "from",
                    "type": "address"
                },
                {
                    "internalType": "address",
                    "name": "to",
                    "type": "address"
                },
                {
                    "internalType": "uint256",
                    "name": "id",
                    "type": "uint256"
                },
                {
                    "internalType": "uint256",
                    "name": "amount",
                    "type": "uint256"
                },
                {
                    "internalType": "bytes",
                    "name": "data",
                    "type": "bytes"
                }
            ],
            "name": "safeTransferFrom",
            "outputs": [],
            "stateMutability": "nonpayable",
            "type": "function"
        },
        {
            "inputs": [
                {
                    "internalType": "address",
                    "name": "operator",
                    "type": "address"
                },
                {
                    "internalType": "bool",
                    "name": "approved",
                    "type": "bool"
                }
            ],
            "name": "setApprovalForAll",
            "outputs": [],
            "stateMutability": "nonpayable",
            "type": "function"
        },
        {
            "inputs": [
                {
                    "internalType": "uint256",
                    "name": "_cast",
                    "type": "uint256"
                }
            ],
            "name": "setBuyCardPackCast",
            "outputs": [],
            "stateMutability": "nonpayable",
            "type": "function"
        },
        {
            "inputs": [
                {
                    "internalType": "uint256",
                    "name": "maxType",
                    "type": "uint256"
                }
            ],
            "name": "setCardMaxType",
            "outputs": [],
            "stateMutability": "nonpayable",
            "type": "function"
        },
        {
            "inputs": [
                {
                    "internalType": "uint256",
                    "name": "_num",
                    "type": "uint256"
                }
            ],
            "name": "setCardPackBuyerNum",
            "outputs": [],
            "stateMutability": "nonpayable",
            "type": "function"
        },
        {
            "inputs": [
                {
                    "internalType": "uint256",
                    "name": "_cast",
                    "type": "uint256"
                }
            ],
            "name": "setCreateCardCast",
            "outputs": [],
            "stateMutability": "nonpayable",
            "type": "function"
        },
        {
            "inputs": [
                {
                    "internalType": "uint256",
                    "name": "_dust",
                    "type": "uint256"
                }
            ],
            "name": "setDefaultDust",
            "outputs": [],
            "stateMutability": "nonpayable",
            "type": "function"
        },
        {
            "inputs": [
                {
                    "internalType": "uint256[]",
                    "name": "entrys",
                    "type": "uint256[]"
                }
            ],
            "name": "setEntrys",
            "outputs": [],
            "stateMutability": "nonpayable",
            "type": "function"
        },
        {
            "inputs": [
                {
                    "internalType": "uint256",
                    "name": "newEntrysLength",
                    "type": "uint256"
                }
            ],
            "name": "setEntrysLength",
            "outputs": [],
            "stateMutability": "nonpayable",
            "type": "function"
        },
        {
            "inputs": [
                {
                    "internalType": "address",
                    "name": "mdtAddress",
                    "type": "address"
                }
            ],
            "name": "setMDT",
            "outputs": [],
            "stateMutability": "nonpayable",
            "type": "function"
        },
        {
            "inputs": [
                {
                    "internalType": "uint256",
                    "name": "_max",
                    "type": "uint256"
                }
            ],
            "name": "setMaxBuyCardStar",
            "outputs": [],
            "stateMutability": "nonpayable",
            "type": "function"
        },
        {
            "inputs": [
                {
                    "internalType": "uint256",
                    "name": "_max",
                    "type": "uint256"
                }
            ],
            "name": "setMaxCardCreateStar",
            "outputs": [],
            "stateMutability": "nonpayable",
            "type": "function"
        },
        {
            "inputs": [
                {
                    "internalType": "address",
                    "name": "tokenAddress",
                    "type": "address"
                }
            ],
            "name": "setMiracleDust",
            "outputs": [],
            "stateMutability": "nonpayable",
            "type": "function"
        },
        {
            "inputs": [
                {
                    "internalType": "string[]",
                    "name": "randomUris",
                    "type": "string[]"
                }
            ],
            "name": "setRandomPackUris",
            "outputs": [],
            "stateMutability": "nonpayable",
            "type": "function"
        },
        {
            "inputs": [
                {
                    "internalType": "uint256",
                    "name": "tokenId",
                    "type": "uint256"
                },
                {
                    "internalType": "uint256",
                    "name": "star",
                    "type": "uint256"
                },
                {
                    "internalType": "uint256",
                    "name": "tokenValue",
                    "type": "uint256"
                },
                {
                    "internalType": "uint256[]",
                    "name": "cardType",
                    "type": "uint256[]"
                },
                {
                    "internalType": "uint256[]",
                    "name": "cardEntrys",
                    "type": "uint256[]"
                },
                {
                    "internalType": "string",
                    "name": "tokenUri",
                    "type": "string"
                }
            ],
            "name": "setTokenValue",
            "outputs": [],
            "stateMutability": "nonpayable",
            "type": "function"
        },
        {
            "inputs": [
                {
                    "internalType": "address",
                    "name": "_address",
                    "type": "address"
                }
            ],
            "name": "setTrustedAddress",
            "outputs": [],
            "stateMutability": "nonpayable",
            "type": "function"
        },
        {
            "inputs": [
                {
                    "internalType": "string",
                    "name": "newuri",
                    "type": "string"
                }
            ],
            "name": "setURI",
            "outputs": [],
            "stateMutability": "nonpayable",
            "type": "function"
        },
        {
            "inputs": [
                {
                    "internalType": "bytes4",
                    "name": "interfaceId",
                    "type": "bytes4"
                }
            ],
            "name": "supportsInterface",
            "outputs": [
                {
                    "internalType": "bool",
                    "name": "",
                    "type": "bool"
                }
            ],
            "stateMutability": "view",
            "type": "function"
        },
        {
            "inputs": [],
            "name": "symbol",
            "outputs": [
                {
                    "internalType": "string",
                    "name": "",
                    "type": "string"
                }
            ],
            "stateMutability": "view",
            "type": "function"
        },
        {
            "inputs": [
                {
                    "internalType": "address",
                    "name": "from",
                    "type": "address"
                },
                {
                    "internalType": "address",
                    "name": "to",
                    "type": "address"
                },
                {
                    "internalType": "uint256",
                    "name": "tokenId",
                    "type": "uint256"
                }
            ],
            "name": "transferFrom",
            "outputs": [],
            "stateMutability": "nonpayable",
            "type": "function"
        },
        {
            "inputs": [
                {
                    "internalType": "uint256",
                    "name": "",
                    "type": "uint256"
                }
            ],
            "name": "uri",
            "outputs": [
                {
                    "internalType": "string",
                    "name": "",
                    "type": "string"
                }
            ],
            "stateMutability": "view",
            "type": "function"
        },
        {
            "inputs": [
                {
                    "internalType": "uint256[]",
                    "name": "useCardPip",
                    "type": "uint256[]"
                }
            ],
            "name": "useCard",
            "outputs": [],
            "stateMutability": "nonpayable",
            "type": "function"
        },
        {
            "inputs": [],
            "name": "useCast",
            "outputs": [
                {
                    "internalType": "uint256",
                    "name": "",
                    "type": "uint256"
                }
            ],
            "stateMutability": "view",
            "type": "function"
        },
        {
            "inputs": [],
            "name": "useCastProportion",
            "outputs": [
                {
                    "internalType": "uint256",
                    "name": "",
                    "type": "uint256"
                }
            ],
            "stateMutability": "view",
            "type": "function"
        }
    ],
    "bytecode": "6000600855606460095560c0604052600a608081905269135a5c9858db1953919560b21b60a09081526200003791600b919062000227565b5060408051808201909152600a80825269135a5c9858db1953919560b21b60209092019182526200006b91600c9162000227565b506003600d8190556040805160a08101825260018152600260208201529081019190915260046060820152600560808201819052620000ad91600e91620002b6565b506005600f556005601055603260115566038d7ea4c6800060125566038d7ea4c68000601355600a60175560056018556003601955348015620000ef57600080fd5b506040516200481e3803806200481e833981016040819052620001129162000310565b604051806060016040528060218152602001620047fd60219139600080546001600160a01b0319163317905562000149816200018b565b50600a80546001600160a01b03199081166001600160a01b0384811691821790935560158054909216179055600054620001849116620001a4565b506200037f565b8051620001a090600790602084019062000227565b5050565b6000546001600160a01b03163314620002035760405162461bcd60e51b815260206004820152601960248201527f4f6e6c79206f776e65722063616e2063616c6c20746869732e00000000000000604482015260640160405180910390fd5b6001600160a01b03166000908152600660205260409020805460ff19166001179055565b828054620002359062000342565b90600052602060002090601f016020900481019282620002595760008555620002a4565b82601f106200027457805160ff1916838001178555620002a4565b82800160010185558215620002a4579182015b82811115620002a457825182559160200191906001019062000287565b50620002b2929150620002f9565b5090565b828054828255906000526020600020908101928215620002a4579160200282015b82811115620002a4578251829060ff16905591602001919060010190620002d7565b5b80821115620002b25760008155600101620002fa565b6000602082840312156200032357600080fd5b81516001600160a01b03811681146200033b57600080fd5b9392505050565b600181811c908216806200035757607f821691505b602082108114156200037957634e487b7160e01b600052602260045260246000fd5b50919050565b61446e806200038f6000396000f3fe6080604052600436106103745760003560e01c80638aebc916116101d1578063afa1638511610102578063ea8d0b0a116100a0578063f220e4ff1161006f578063f220e4ff14610a13578063f242432a14610a33578063f9893b8e14610a53578063f9f494ed14610a7357600080fd5b8063ea8d0b0a1461099f578063ed2ee69d146109bf578063eda0069c146109df578063f1efb76a146109f557600080fd5b8063ca11e7f0116100dc578063ca11e7f0146108ee578063e4b50cb81461090e578063e7619fad14610941578063e985e9c51461095657600080fd5b8063afa16385146108a2578063beba6432146108b8578063c365e336146108ce57600080fd5b806395d89b411161016f578063a1813fac11610149578063a1813fac14610822578063a22cb46514610842578063a5ea0fec14610862578063aa7ac1a31461088257600080fd5b806395d89b41146107cd57806397388126146107e2578063986192cf1461080257600080fd5b80638da5cb5b116101ab5780638da5cb5b14610759578063925057fa1461077757806394c3a1cf1461078d57806395421663146107ad57600080fd5b80638aebc916146106f95780638baae43c146107195780638cbfc3051461073957600080fd5b80633130eb5e116102ab5780636352211e116102495780637408a222116102235780637408a2221461069d57806376263c8c146106bd578063770bdff8146106db57806379ef1b38146106f157600080fd5b80636352211e146106255780636f03894f1461065d57806370a082311461067d57600080fd5b806338cb8d201161028557806338cb8d20146105a257806348371388146105c25780634e1273f4146105e25780636121b0b31461060f57600080fd5b80633130eb5e14610553578063313ce5671461057357806336eb146c1461058f57600080fd5b80630e89341c1161031857806329adb287116102f257806329adb287146104dd5780632eb2c2d6146104fd5780632fa5fe381461051d578063303b11951461053d57600080fd5b80630e89341c146104875780631597a43d146104a757806323b872dd146104bd57600080fd5b806302fe53051161035457806302fe53051461040357806306fdde03146104255780630848a136146104475780630e53310a1461046757600080fd5b806236f0ad14610379578062fdd58e146103a257806301ffc9a7146103c2575b600080fd5b34801561038557600080fd5b5061038f60195481565b6040519081526020015b60405180910390f35b3480156103ae57600080fd5b5061038f6103bd3660046135ea565b610a93565b3480156103ce57600080fd5b506103f36103dd36600461362a565b6001600160e01b0319166301ffc9a760e01b1490565b6040519015158152602001610399565b34801561040f57600080fd5b5061042361041e3660046136fc565b610aef565b005b34801561043157600080fd5b5061043a610b25565b604051610399919061377d565b34801561045357600080fd5b506103f3610462366004613790565b610bb3565b34801561047357600080fd5b5061043a6104823660046137ab565b610bd1565b34801561049357600080fd5b5061043a6104a23660046137ab565b610bfc565b3480156104b357600080fd5b5061038f600f5481565b3480156104c957600080fd5b506104236104d83660046137c4565b610c90565b3480156104e957600080fd5b506104236104f8366004613800565b610cdc565b34801561050957600080fd5b506104236105183660046138b6565b610dd2565b34801561052957600080fd5b506104236105383660046137ab565b6110ae565b34801561054957600080fd5b5061038f60125481565b34801561055f57600080fd5b5061042361056e366004613790565b6110d8565b34801561057f57600080fd5b5060405160008152602001610399565b61042361059d36600461395f565b6110fa565b3480156105ae57600080fd5b506104236105bd3660046139cb565b6112d9565b3480156105ce57600080fd5b506103f36105dd3660046139ff565b6114cf565b3480156105ee57600080fd5b506106026105fd366004613a4c565b611555565b6040516103999190613b47565b34801561061b57600080fd5b5061038f60115481565b34801561063157600080fd5b506106456106403660046137ab565b611741565b6040516001600160a01b039091168152602001610399565b34801561066957600080fd5b506104236106783660046139cb565b61174c565b34801561068957600080fd5b5061038f610698366004613790565b611789565b3480156106a957600080fd5b5061038f6106b83660046137ab565b611794565b3480156106c957600080fd5b506014546001600160a01b0316610645565b3480156106e757600080fd5b5061038f60175481565b6104236117b5565b34801561070557600080fd5b50610423610714366004613b5a565b611832565b34801561072557600080fd5b50610423610734366004613bcd565b611b26565b34801561074557600080fd5b50610423610754366004613790565b611b5e565b34801561076557600080fd5b506000546001600160a01b0316610645565b34801561078357600080fd5b5061038f60105481565b34801561079957600080fd5b506104236107a83660046137ab565b611bac565b3480156107b957600080fd5b50601554610645906001600160a01b031681565b3480156107d957600080fd5b5061043a611bd6565b3480156107ee57600080fd5b506104236107fd3660046137ab565b611be3565b34801561080e57600080fd5b5061042361081d3660046137ab565b611c12565b34801561082e57600080fd5b5061060261083d366004613790565b611c41565b34801561084e57600080fd5b5061042361085d366004613c88565b611c8a565b34801561086e57600080fd5b5061042361087d3660046137ab565b611d61565b34801561088e57600080fd5b5061042361089d3660046137ab565b611d8b565b3480156108ae57600080fd5b5061038f60135481565b3480156108c457600080fd5b5061038f60185481565b3480156108da57600080fd5b506104236108e9366004613cc4565b611ddc565b3480156108fa57600080fd5b506104236109093660046137ab565b611e1a565b34801561091a57600080fd5b5061092e6109293660046137ab565b611e49565b6040516103999796959493929190613d45565b34801561094d57600080fd5b50610602611ec8565b34801561096257600080fd5b506103f3610971366004613dad565b6001600160a01b03918216600090815260056020908152604080832093909416825291909152205460ff1690565b3480156109ab57600080fd5b506104236109ba366004613790565b611ed9565b3480156109cb57600080fd5b506104236109da3660046137ab565b611f03565b3480156109eb57600080fd5b5061038f600d5481565b348015610a0157600080fd5b50600a546001600160a01b0316610645565b348015610a1f57600080fd5b50610423610a2e366004613de0565b611f2d565b348015610a3f57600080fd5b50610423610a4e366004613e83565b611f47565b348015610a5f57600080fd5b50610423610a6e366004613ee7565b612159565b348015610a7f57600080fd5b50610423610a8e366004613790565b61232b565b60006001600160a01b038316610ac45760405162461bcd60e51b8152600401610abb90613f33565b60405180910390fd5b5060008181526004602090815260408083206001600160a01b03861684529091529020545b92915050565b6000546001600160a01b03163314610b195760405162461bcd60e51b8152600401610abb90613f7e565b610b2281612376565b50565b600b8054610b3290613fb5565b80601f0160208091040260200160405190810160405280929190818152602001828054610b5e90613fb5565b8015610bab5780601f10610b8057610100808354040283529160200191610bab565b820191906000526020600020905b815481529060010190602001808311610b8e57829003601f168201915b505050505081565b6001600160a01b031660009081526006602052604090205460ff1690565b60168181548110610be157600080fd5b906000526020600020016000915090508054610b3290613fb5565b606060078054610c0b90613fb5565b80601f0160208091040260200160405190810160405280929190818152602001828054610c3790613fb5565b8015610c845780601f10610c5957610100808354040283529160200191610c84565b820191906000526020600020905b815481529060010190602001808311610c6757829003601f168201915b50505050509050919050565b6000546001600160a01b03163314610cba5760405162461bcd60e51b8152600401610abb90613f7e565b610cd7838383600160405180602001604052806000815250611f47565b505050565b6014546001600160a01b0316610d045760405162461bcd60e51b8152600401610abb90613ff0565b60008111610d245760405162461bcd60e51b8152600401610abb90614027565b600080600080600080610d3688611e49565b506014546040516336409cb760e11b8152336004820152602481018f9052969c50949a50929850909650945092506001600160a01b031690636c81396e90604401600060405180830381600087803b158015610d9157600080fd5b505af1158015610da5573d6000803e3d6000fd5b5050505060008785610db79190614083565b9050610dc7878783878787611f2d565b505050505050505050565b8151835114610e345760405162461bcd60e51b815260206004820152602860248201527f455243313135353a2069647320616e6420616d6f756e7473206c656e677468206044820152670dad2e6dac2e8c6d60c31b6064820152608401610abb565b6001600160a01b038416610e5a5760405162461bcd60e51b8152600401610abb9061409b565b6001600160a01b038516331480610e765750610e768533610971565b610edd5760405162461bcd60e51b815260206004820152603260248201527f455243313135353a207472616e736665722063616c6c6572206973206e6f74206044820152711bdddb995c881b9bdc88185c1c1c9bdd995960721b6064820152608401610abb565b3360005b8451811015611040576000858281518110610efe57610efe6140e0565b602002602001015190506000858381518110610f1c57610f1c6140e0565b60200260200101519050610f89816040518060600160405280602a81526020016143ee602a91396004600086815260200190815260200160002060008d6001600160a01b03166001600160a01b03168152602001908152602001600020546123899092919063ffffffff16565b60008381526004602090815260408083206001600160a01b038e811685529252808320939093558a1681522054610fc090826123ba565b60008381526004602090815260408083206001600160a01b03808e16855290835281842094909455928c1682526003905220610ffc90836123c6565b506001600160a01b038816600090815260036020526040902061101f90836123d2565b5061102c6001838a6123de565b50505080611039906140f6565b9050610ee1565b50846001600160a01b0316866001600160a01b0316826001600160a01b03167f4a39dc06d4c0dbc64b70af90fd698a233a518aa5d07e595d983b8c0526c8f7fb8787604051611090929190614111565b60405180910390a46110a68187878787876123f3565b505050505050565b6110b733610bb3565b6110d35760405162461bcd60e51b8152600401610abb9061413f565b601955565b601480546001600160a01b0319166001600160a01b0392909216919091179055565b60125434101561113e5760405162461bcd60e51b815260206004820152600f60248201526e6e6f20656e6f756768206d6f6e657960881b6044820152606401610abb565b600d548311156111905760405162461bcd60e51b815260206004820152601760248201527f6e6f7420686176652074686973206361726420747970650000000000000000006044820152606401610abb565b600a546040516001600160a01b03909116903480156108fc02916000818181858888f193505050501580156111c9573d6000803e3d6000fd5b5060006111d461254f565b604080516003808252608082019092529192506000919060208201606080368337019050509050848160008151811061120f5761120f6140e0565b602090810291909101015283511561123e5761123933838361123088612566565b876017546126c0565b61129d565b61129d338383611230600e80548060200260200160405190810160405280929190818152602001828054801561129357602002820191906000526020600020905b81548152602001906001019080831161127f575b5050505050612566565b60405182815233907ff9c4ddffd4aef856c95622e875f2337d049085a3d12c8095c51eca343a9a1fe39060200160405180910390a25050505050565b6014546001600160a01b03166113015760405162461bcd60e51b8152600401610abb90613ff0565b6000805b825181101561146457600080600080600080600061133b8a898151811061132e5761132e6140e0565b6020026020010151611e49565b9650965096509650965096509650336001600160a01b0316816001600160a01b0316146113a55760405162461bcd60e51b8152602060048201526018602482015277496e73756666696369656e74207065726d697373696f6e7360401b6044820152606401610abb565b6010546113b29087614181565b8510156113f65760405162461bcd60e51b81526020600482015260126024820152714e6f7420656e6f756768206e756d6265727360701b6044820152606401610abb565b6000601054876114069190614181565b61141090876141a0565b90506064601154601054896114259190614181565b61142f9190614181565b61143991906141cd565b9950611449888883888888611f2d565b5050505050505050808061145c906140f6565b915050611305565b5080156114cb57601454604051636c22e3f960e01b8152336004820152602481018390526001600160a01b0390911690636c22e3f990604401600060405180830381600087803b1580156114b757600080fd5b505af11580156110a6573d6000803e3d6000fd5b5050565b6000805b825181101561154b576000806114f485848151811061132e5761132e6140e0565b965050505093505050856001600160a01b0316816001600160a01b0316146115225760009350505050610ae9565b600082116115365760009350505050610ae9565b50508080611543906140f6565b9150506114d3565b5060019392505050565b606081518351146115ba5760405162461bcd60e51b815260206004820152602960248201527f455243313135353a206163636f756e747320616e6420696473206c656e677468604482015268040dad2e6dac2e8c6d60bb1b6064820152608401610abb565b600083516001600160401b038111156115d5576115d5613647565b6040519080825280602002602001820160405280156115fe578160200160208202803683370190505b50905060005b84518110156117395760006001600160a01b031685828151811061162a5761162a6140e0565b60200260200101516001600160a01b031614156116a35760405162461bcd60e51b815260206004820152603160248201527f455243313135353a2062617463682062616c616e636520717565727920666f7260448201527020746865207a65726f206164647265737360781b6064820152608401610abb565b600460008583815181106116b9576116b96140e0565b6020026020010151815260200190815260200160002060008683815181106116e3576116e36140e0565b60200260200101516001600160a01b03166001600160a01b031681526020019081526020016000205482828151811061171e5761171e6140e0565b6020908102919091010152611732816140f6565b9050611604565b509392505050565b6000610ae98261280c565b6000546001600160a01b031633146117765760405162461bcd60e51b8152600401610abb90613f7e565b80516114cb90600e906020840190613402565b6000610ae982612834565b600e81815481106117a457600080fd5b600091825260209091200154905081565b6013543410156117f95760405162461bcd60e51b815260206004820152600f60248201526e6e6f20656e6f756768206d6f6e657960881b6044820152606401610abb565b600a546040516001600160a01b03909116903480156108fc02916000818181858888f19350505050158015610b22573d6000803e3d6000fd5b61183b81610bb3565b6118a15760405162461bcd60e51b815260206004820152603160248201527f5468652064657374696e6174696f6e2061646472657373206d75737420626520604482015270612074727573746564206164647265737360781b6064820152608401610abb565b81518351146118e95760405162461bcd60e51b81526020600482015260146024820152731b195b99dd1a081b5d5cdd08189948195c5d585b60621b6044820152606401610abb565b6000805b8451811015611a565760008060008060008060006119168c898151811061132e5761132e6140e0565b9650965096509650965096509650336001600160a01b0316816001600160a01b0316146119805760405162461bcd60e51b8152602060048201526018602482015277496e73756666696369656e74207065726d697373696f6e7360401b6044820152606401610abb565b8a8881518110611992576119926140e0565b602002602001015185116119dd5760405162461bcd60e51b81526020600482015260126024820152714e6f7420656e6f756768206e756d6265727360701b6044820152606401610abb565b8a88815181106119ef576119ef6140e0565b602002602001015189611a029190614083565b985060008b8981518110611a1857611a186140e0565b602002602001015186611a2b91906141a0565b9050611a3b888883888888611f2d565b50505050505050508080611a4e906140f6565b9150506118ed565b5060008111611aba5760405162461bcd60e51b815260206004820152602a60248201527f6c6f636b2076616c7565205175616e74697479206d75737420626520677265616044820152690746572207468616e20360b41b6064820152608401610abb565b601454604051636c22e3f960e01b81526001600160a01b0384811660048301526024820184905290911690636c22e3f990604401600060405180830381600087803b158015611b0857600080fd5b505af1158015611b1c573d6000803e3d6000fd5b5050505050505050565b611b2f33610bb3565b611b4b5760405162461bcd60e51b8152600401610abb9061413f565b80516114cb90601690602084019061344d565b6000546001600160a01b03163314611b885760405162461bcd60e51b8152600401610abb90613f7e565b6001600160a01b03166000908152600660205260409020805460ff19166001179055565b611bb533610bb3565b611bd15760405162461bcd60e51b8152600401610abb9061413f565b600d55565b600c8054610b3290613fb5565b6000546001600160a01b03163314611c0d5760405162461bcd60e51b8152600401610abb90613f7e565b600f55565b6000546001600160a01b03163314611c3c5760405162461bcd60e51b8152600401610abb90613f7e565b601355565b60606001600160a01b038216611c695760405162461bcd60e51b8152600401610abb90613f33565b6001600160a01b0382166000908152600360205260409020610ae9906128b9565b336001600160a01b0383161415611cf55760405162461bcd60e51b815260206004820152602960248201527f455243313135353a2073657474696e6720617070726f76616c20737461747573604482015268103337b91039b2b63360b91b6064820152608401610abb565b3360008181526005602090815260408083206001600160a01b03871680855290835292819020805460ff191686151590811790915590519081529192917f17307eab39ab6107e8899845ad3d59bd9653f200f220920489ca2b5937696c31910160405180910390a35050565b611d6a33610bb3565b611d865760405162461bcd60e51b8152600401610abb9061413f565b601755565b611d9433610bb3565b611dd75760405162461bcd60e51b81526020600482015260146024820152736e6f74206973547275737465644164647265737360601b6044820152606401610abb565b600955565b6000546001600160a01b03163314611e065760405162461bcd60e51b8152600401610abb90613f7e565b611e1385858585856128c6565b5050505050565b6000546001600160a01b03163314611e445760405162461bcd60e51b8152600401610abb90613f7e565b601255565b60008060006060806060600080611e90896040518060400160405280600c81526020016b18d85c99081b9bc8199a5b9960a21b81525060016129cc9092919063ffffffff16565b8051602082015160408301516060840151608085015160a086015160c090960151949f939e50919c509a509850919650945092505050565b6060611ed460016129df565b905090565b6000546001600160a01b031633146110d85760405162461bcd60e51b8152600401610abb90613f7e565b611f0c33610bb3565b611f285760405162461bcd60e51b8152600401610abb9061413f565b601855565b611f3e6001878787878787336129ea565b50505050505050565b6001600160a01b038416611f6d5760405162461bcd60e51b8152600401610abb9061409b565b6001600160a01b038516331480611f895750611f898533610971565b611fe75760405162461bcd60e51b815260206004820152602960248201527f455243313135353a2063616c6c6572206973206e6f74206f776e6572206e6f7260448201526808185c1c1c9bdd995960ba1b6064820152608401610abb565b33612000818787611ff788612a0b565b611e1388612a0b565b612047836040518060600160405280602a81526020016143ee602a913960008781526004602090815260408083206001600160a01b038d1684529091529020549190612389565b60008581526004602090815260408083206001600160a01b038b8116855292528083209390935587168152205461207e90846123ba565b60008581526004602090815260408083206001600160a01b03808b16855290835281842094909455928916825260039052206120ba90856123c6565b506001600160a01b03851660009081526003602052604090206120dd90856123d2565b506120ea600185876123de565b50846001600160a01b0316866001600160a01b0316826001600160a01b03167fc3d58168c5ae7397731d063d5bbf3d657854427343f4c083240f7aacaa2d0f628787604051612143929190918252602082015260400190565b60405180910390a46110a6818787878787612a56565b6014546001600160a01b03166121815760405162461bcd60e51b8152600401610abb90613ff0565b80518251146121d25760405162461bcd60e51b815260206004820152601b60248201527f4172726179206c656e6774687320617265206e6f7420657175616c00000000006044820152606401610abb565b6000805b8251811015612218578281815181106121f1576121f16140e0565b6020026020010151826122049190614083565b915080612210816140f6565b9150506121d6565b50600081116122395760405162461bcd60e51b8152600401610abb90614027565b6014546040516336409cb760e11b8152336004820152602481018390526001600160a01b0390911690636c81396e90604401600060405180830381600087803b15801561228557600080fd5b505af1158015612299573d6000803e3d6000fd5b5050505060005b8351811015612325576000806000806000806122c78a888151811061132e5761132e6140e0565b5095509550955095509550955060008988815181106122e8576122e86140e0565b6020026020010151856122fb9190614083565b905061230b878783878787611f2d565b50505050505050808061231d906140f6565b9150506122a0565b50505050565b6000546001600160a01b031633146123555760405162461bcd60e51b8152600401610abb90613f7e565b6001600160a01b03166000908152600660205260409020805460ff19169055565b80516114cb9060079060208401906134a6565b600081848411156123ad5760405162461bcd60e51b8152600401610abb919061377d565b50508183035b9392505050565b60006123b38284614083565b60006123b38383612b11565b60006123b38383612c04565b60006123eb848484612c53565b949350505050565b6001600160a01b0384163b156110a65760405163bc197c8160e01b81526001600160a01b0385169063bc197c819061243790899089908890889088906004016141e1565b6020604051808303816000875af1925050508015612472575060408051601f3d908101601f1916820190925261246f91810190614233565b60015b61251f5761247e614250565b806308c379a014156124b8575061249361426c565b8061249e57506124ba565b8060405162461bcd60e51b8152600401610abb919061377d565b505b60405162461bcd60e51b815260206004820152603460248201527f455243313135353a207472616e7366657220746f206e6f6e20455243313135356044820152732932b1b2b4bb32b91034b6b83632b6b2b73a32b960611b6064820152608401610abb565b6001600160e01b0319811663bc197c8160e01b14611f3e5760405162461bcd60e51b8152600401610abb906142f5565b600061255b6001612cd1565b611ed4906001614083565b60606000600f546001600160401b0381111561258457612584613647565b6040519080825280602002602001820160405280156125ad578160200160208202803683370190505b50905060008044426040516020016125cf929190918252602082015260400190565b6040516020818303038152906040528051906020012060001c905060005b85518110156126b6576001600f5461260591906141a0565b8310612610576126b6565b6002868281518110612624576126246140e0565b602002602001015161263691906141cd565b868281518110612648576126486140e0565b60200260200101518361265b919061433d565b11156126a657858181518110612673576126736140e0565b602002602001015184848151811061268d5761268d6140e0565b6020908102919091010152826126a2816140f6565b9350505b6126af816140f6565b90506125ed565b5091949350505050565b6001600160a01b0386166126e65760405162461bcd60e51b8152600401610abb90614351565b33612717816000896126f78a612a0b565b6127016001612a0b565b5050604080516020810190915260009052505050565b60008681526004602090815260408083206001600160a01b038b1684529091529020546127459060016123ba565b60008781526004602090815260408083206001600160a01b038c168452825280832093909355600390522061277a90876123d2565b50600061278683612cdb565b6009549091506127a090600190899084908a8a8a8f6129ea565b5060408051888152600160208201526001600160a01b03808b1692600092918616917fc3d58168c5ae7397731d063d5bbf3d657854427343f4c083240f7aacaa2d0f62910160405180910390a4611b1c8260008a8a600160405180602001604052806000815250612a56565b6000610ae9826040518060600160405280602181526020016144186021913960019190612d94565b60006001600160a01b0382166128985760405162461bcd60e51b815260206004820152602360248201527f2062616c616e636520717565727920666f7220746865207a65726f206164647260448201526265737360e81b6064820152608401610abb565b6001600160a01b0382166000908152600360205260409020610ae990612cd1565b606060006123b383612da1565b336128e35760405162461bcd60e51b8152600401610abb90614351565b60006128ed61254f565b905033612900816000816126f786612a0b565b60008281526004602090815260408083203384529091529020546129259060016123ba565b6000838152600460209081526040808320338452825280832093909355600390522061295190836123d2565b5061296360018387878b8b89336129ea565b50604080518381526001602082015233916000916001600160a01b038516917fc3d58168c5ae7397731d063d5bbf3d657854427343f4c083240f7aacaa2d0f62910160405180910390a4611f3e8160003385600160405180602001604052806000815250612a56565b6129d4613519565b6123eb848484612dfc565b6060610ae982612fe8565b60006129fc898989898989898961309d565b90505b98975050505050505050565b60408051600180825281830190925260609160009190602080830190803683370190505090508281600081518110612a4557612a456140e0565b602090810291909101015292915050565b6001600160a01b0384163b156110a65760405163f23a6e6160e01b81526001600160a01b0385169063f23a6e6190612a9a9089908990889088908890600401614392565b6020604051808303816000875af1925050508015612ad5575060408051601f3d908101601f19168201909252612ad291810190614233565b60015b612ae15761247e614250565b6001600160e01b0319811663f23a6e6160e01b14611f3e5760405162461bcd60e51b8152600401610abb906142f5565b60008181526001830160205260408120548015612bfa576000612b356001836141a0565b8554909150600090612b49906001906141a0565b9050818114612bae576000866000018281548110612b6957612b696140e0565b9060005260206000200154905080876000018481548110612b8c57612b8c6140e0565b6000918252602080832090910192909255918252600188019052604090208390555b8554869080612bbf57612bbf6143d7565b600190038181906000526020600020016000905590558560010160008681526020019081526020016000206000905560019350505050610ae9565b6000915050610ae9565b6000818152600183016020526040812054612c4b57508154600181810184556000848152602080822090930184905584548482528286019093526040902091909155610ae9565b506000610ae9565b600082815260018401602052604081205480612c735760009150506123b3565b8285612c806001846141a0565b81548110612c9057612c906140e0565b906000526020600020906007020160060160006101000a8154816001600160a01b0302191690836001600160a01b0316021790555060019150509392505050565b6000610ae9825490565b600854604080513360208083019190915244828401524260608301526080808301949094528251808303909401845260a0909101909152815191012060009081612d26846064614181565b90506000612d3a655af3107a4000346141cd565b612d44838561433d565b612d4e9190614083565b905081811115612d5b5750805b6000612d6886600a614181565b600880549192506000612d7a836140f6565b90915550612d8a905081836141cd565b9695505050505050565b60006123eb84848461338f565b606081600001805480602002602001604051908101604052809291908181526020018280548015610c8457602002820191906000526020600020905b815481526020019060010190808311612ddd5750505050509050919050565b612e04613519565b60008381526001850160205260409020548281612e345760405162461bcd60e51b8152600401610abb919061377d565b5084612e416001836141a0565b81548110612e5157612e516140e0565b90600052602060002090600702016040518060e001604052908160008201548152602001600182015481526020016002820154815260200160038201805480602002602001604051908101604052809291908181526020018280548015612ed757602002820191906000526020600020905b815481526020019060010190808311612ec3575b5050505050815260200160048201805480602002602001604051908101604052809291908181526020018280548015612f2f57602002820191906000526020600020905b815481526020019060010190808311612f1b575b50505050508152602001600582018054612f4890613fb5565b80601f0160208091040260200160405190810160405280929190818152602001828054612f7490613fb5565b8015612fc15780601f10612f9657610100808354040283529160200191612fc1565b820191906000526020600020905b815481529060010190602001808311612fa457829003601f168201915b5050509183525050600691909101546001600160a01b031660209091015295945050505050565b80546060906000906001600160401b0381111561300757613007613647565b604051908082528060200260200182016040528015613030578160200160208202803683370190505b50905060005b835481101561309657836000018181548110613054576130546140e0565b90600052602060002090600702016000015460001c82828151811061307b5761307b6140e0565b602090810291909101015261308f816140f6565b9050613036565b5092915050565b6000878152600189016020526040812054806131d757896000016040518060e001604052808b81526020018a8152602001898152602001888152602001878152602001868152602001856001600160a01b031681525090806001815401808255809150506001900390600052602060002090600702016000909190919091506000820151816000015560208201518160010155604082015181600201556060820151816003019080519060200190613156929190613402565b5060808201518051613172916004840191602090910190613402565b5060a0820151805161318e9160058401916020909101906134a6565b5060c09190910151600690910180546001600160a01b0319166001600160a01b0390921691909117905550508754600088815260018a81016020526040909120919091556129ff565b888a6131e46001846141a0565b815481106131f4576131f46140e0565b6000918252602090912060079091020155878a6132126001846141a0565b81548110613222576132226140e0565b906000526020600020906007020160010181905550868a60000160018361324991906141a0565b81548110613259576132596140e0565b6000918252602090912060026007909202010155858a61327a6001846141a0565b8154811061328a5761328a6140e0565b906000526020600020906007020160030190805190602001906132ae929190613402565b50848a6132bc6001846141a0565b815481106132cc576132cc6140e0565b906000526020600020906007020160040190805190602001906132f0929190613402565b50838a6132fe6001846141a0565b8154811061330e5761330e6140e0565b906000526020600020906007020160050190805190602001906133329291906134a6565b50828a6133406001846141a0565b81548110613350576133506140e0565b906000526020600020906007020160060160006101000a8154816001600160a01b0302191690836001600160a01b0316021790555060009150506129ff565b600082815260018401602052604081205482816133bf5760405162461bcd60e51b8152600401610abb919061377d565b50846133cc6001836141a0565b815481106133dc576133dc6140e0565b60009182526020909120600790910201600601546001600160a01b031695945050505050565b82805482825590600052602060002090810192821561343d579160200282015b8281111561343d578251825591602001919060010190613422565b50613449929150613562565b5090565b82805482825590600052602060002090810192821561349a579160200282015b8281111561349a578251805161348a9184916020909101906134a6565b509160200191906001019061346d565b50613449929150613577565b8280546134b290613fb5565b90600052602060002090601f0160209004810192826134d4576000855561343d565b82601f106134ed57805160ff191683800117855561343d565b8280016001018555821561343d579182018281111561343d578251825591602001919060010190613422565b6040518060e0016040528060008019168152602001600081526020016000815260200160608152602001606081526020016060815260200160006001600160a01b031681525090565b5b808211156134495760008155600101613563565b8082111561344957600061358b8282613594565b50600101613577565b5080546135a090613fb5565b6000825580601f106135b0575050565b601f016020900490600052602060002090810190610b229190613562565b80356001600160a01b03811681146135e557600080fd5b919050565b600080604083850312156135fd57600080fd5b613606836135ce565b946020939093013593505050565b6001600160e01b031981168114610b2257600080fd5b60006020828403121561363c57600080fd5b81356123b381613614565b634e487b7160e01b600052604160045260246000fd5b601f8201601f191681016001600160401b038111828210171561368257613682613647565b6040525050565b600082601f83011261369a57600080fd5b81356001600160401b038111156136b3576136b3613647565b6040516136ca601f8301601f19166020018261365d565b8181528460208386010111156136df57600080fd5b816020850160208301376000918101602001919091529392505050565b60006020828403121561370e57600080fd5b81356001600160401b0381111561372457600080fd5b6123eb84828501613689565b6000815180845260005b818110156137565760208185018101518683018201520161373a565b81811115613768576000602083870101525b50601f01601f19169290920160200192915050565b6020815260006123b36020830184613730565b6000602082840312156137a257600080fd5b6123b3826135ce565b6000602082840312156137bd57600080fd5b5035919050565b6000806000606084860312156137d957600080fd5b6137e2846135ce565b92506137f0602085016135ce565b9150604084013590509250925092565b6000806040838503121561381357600080fd5b50508035926020909101359150565b60006001600160401b0382111561383b5761383b613647565b5060051b60200190565b600082601f83011261385657600080fd5b8135602061386382613822565b604051613870828261365d565b83815260059390931b850182019282810191508684111561389057600080fd5b8286015b848110156138ab5780358352918301918301613894565b509695505050505050565b600080600080600060a086880312156138ce57600080fd5b6138d7866135ce565b94506138e5602087016135ce565b935060408601356001600160401b038082111561390157600080fd5b61390d89838a01613845565b9450606088013591508082111561392357600080fd5b61392f89838a01613845565b9350608088013591508082111561394557600080fd5b5061395288828901613689565b9150509295509295909350565b60008060006060848603121561397457600080fd5b8335925060208401356001600160401b038082111561399257600080fd5b61399e87838801613845565b935060408601359150808211156139b457600080fd5b506139c186828701613689565b9150509250925092565b6000602082840312156139dd57600080fd5b81356001600160401b038111156139f357600080fd5b6123eb84828501613845565b60008060408385031215613a1257600080fd5b613a1b836135ce565b915060208301356001600160401b03811115613a3657600080fd5b613a4285828601613845565b9150509250929050565b60008060408385031215613a5f57600080fd5b82356001600160401b0380821115613a7657600080fd5b818501915085601f830112613a8a57600080fd5b81356020613a9782613822565b604051613aa4828261365d565b83815260059390931b8501820192828101915089841115613ac457600080fd5b948201945b83861015613ae957613ada866135ce565b82529482019490820190613ac9565b96505086013592505080821115613aff57600080fd5b50613a4285828601613845565b600081518084526020808501945080840160005b83811015613b3c57815187529582019590820190600101613b20565b509495945050505050565b6020815260006123b36020830184613b0c565b600080600060608486031215613b6f57600080fd5b83356001600160401b0380821115613b8657600080fd5b613b9287838801613845565b94506020860135915080821115613ba857600080fd5b50613bb586828701613845565b925050613bc4604085016135ce565b90509250925092565b60006020808385031215613be057600080fd5b82356001600160401b0380821115613bf757600080fd5b818501915085601f830112613c0b57600080fd5b8135613c1681613822565b604051613c23828261365d565b82815260059290921b8401850191858101915088831115613c4357600080fd5b8585015b83811015613c7b57803585811115613c5f5760008081fd5b613c6d8b89838a0101613689565b845250918601918601613c47565b5098975050505050505050565b60008060408385031215613c9b57600080fd5b613ca4836135ce565b915060208301358015158114613cb957600080fd5b809150509250929050565b600080600080600060a08688031215613cdc57600080fd5b85356001600160401b0380821115613cf357600080fd5b613cff89838a01613845565b96506020880135915080821115613d1557600080fd5b613d2189838a01613845565b95506040880135945060608801359350608088013591508082111561394557600080fd5b87815286602082015285604082015260e060608201526000613d6a60e0830187613b0c565b8281036080840152613d7c8187613b0c565b905082810360a0840152613d908186613730565b91505060018060a01b03831660c083015298975050505050505050565b60008060408385031215613dc057600080fd5b613dc9836135ce565b9150613dd7602084016135ce565b90509250929050565b60008060008060008060c08789031215613df957600080fd5b86359550602087013594506040870135935060608701356001600160401b0380821115613e2557600080fd5b613e318a838b01613845565b94506080890135915080821115613e4757600080fd5b613e538a838b01613845565b935060a0890135915080821115613e6957600080fd5b50613e7689828a01613689565b9150509295509295509295565b600080600080600060a08688031215613e9b57600080fd5b613ea4866135ce565b9450613eb2602087016135ce565b9350604086013592506060860135915060808601356001600160401b03811115613edb57600080fd5b61395288828901613689565b60008060408385031215613efa57600080fd5b82356001600160401b0380821115613f1157600080fd5b613f1d86838701613845565b93506020850135915080821115613aff57600080fd5b6020808252602b908201527f455243313135353a2062616c616e636520717565727920666f7220746865207a60408201526a65726f206164647265737360a81b606082015260800190565b60208082526019908201527f4f6e6c79206f776e65722063616e2063616c6c20746869732e00000000000000604082015260600190565b600181811c90821680613fc957607f821691505b60208210811415613fea57634e487b7160e01b600052602260045260246000fd5b50919050565b6020808252601a908201527f6d697261636c65206475737420746f6b656e206e6f7420736574000000000000604082015260600190565b60208082526026908201527f526563686172676520616d6f756e74206d75737420626520677265617465722060408201526507468616e20360d41b606082015260800190565b634e487b7160e01b600052601160045260246000fd5b600082198211156140965761409661406d565b500190565b60208082526025908201527f455243313135353a207472616e7366657220746f20746865207a65726f206164604082015264647265737360d81b606082015260800190565b634e487b7160e01b600052603260045260246000fd5b600060001982141561410a5761410a61406d565b5060010190565b6040815260006141246040830185613b0c565b82810360208401526141368185613b0c565b95945050505050565b60208082526022908201527f54686973206d6574686f64206d7573742063616c6c6564206279207472757374604082015261195960f21b606082015260800190565b600081600019048311821515161561419b5761419b61406d565b500290565b6000828210156141b2576141b261406d565b500390565b634e487b7160e01b600052601260045260246000fd5b6000826141dc576141dc6141b7565b500490565b6001600160a01b0386811682528516602082015260a06040820181905260009061420d90830186613b0c565b828103606084015261421f8186613b0c565b905082810360808401526129ff8185613730565b60006020828403121561424557600080fd5b81516123b381613614565b600060033d11156142695760046000803e5060005160e01c5b90565b600060443d101561427a5790565b6040516003193d81016004833e81513d6001600160401b0381602484011181841117156142a957505050505090565b82850191508151818111156142c15750505050505090565b843d87010160208285010111156142db5750505050505090565b6142ea6020828601018761365d565b509095945050505050565b60208082526028908201527f455243313135353a204552433131353552656365697665722072656a656374656040820152676420746f6b656e7360c01b606082015260800190565b60008261434c5761434c6141b7565b500690565b60208082526021908201527f455243313135353a206d696e7420746f20746865207a65726f206164647265736040820152607360f81b606082015260800190565b6001600160a01b03868116825285166020820152604081018490526060810183905260a0608082018190526000906143cc90830184613730565b979650505050505050565b634e487b7160e01b600052603160045260246000fdfe455243313135353a20696e73756666696369656e742062616c616e636520666f72207472616e736665726f776e657220717565727920666f72206e6f6e6578697374656e7420746f6b656ea2646970667358221220c03c2e7af49ffccc5650f11b0b379cbf78f58f397810e7ac2b5f8f2d82d1974c64736f6c634300080c003368747470733a2f2f6e66742e6675616b6f726d2e636f6d2f7b69647d2e6a736f6e",
    "sourcePath": "d:/demo/contract/MiracleWarGame/src/contracts/MiracleCard.sol",
    "compiler": {
        "name": "solc",
        "version": "0.8.12+commit.f00d7308"
    },
    "functionHashes": {
        "CreateCardByOwner(uint256[],uint256[],uint256,uint256,string)": "c365e336",
        "_entrys(uint256)": "7408a222",
        "_entrysLength()": "1597a43d",
        "allBalance(address)": "a1813fac",
        "allTokenIds()": "e7619fad",
        "balanceOf(address)": "70a08231",
        "balanceOf(address,uint256)": "00fdd58e",
        "balanceOfBatch(address[],uint256[])": "4e1273f4",
        "buyCardPack()": "79ef1b38",
        "buyCardPackCast()": "afa16385",
        "cardCanUse(address,uint256[])": "48371388",
        "cardMaxType()": "eda0069c",
        "cardPackBuyerNum()": "0036f0ad",
        "createCard(uint256,uint256[],string)": "36eb146c",
        "createCardCast()": "303b1195",
        "decimals()": "313ce567",
        "getMiracleDustTokenAddress()": "76263c8c",
        "getPayTo()": "f1efb76a",
        "getToken(uint256)": "e4b50cb8",
        "isApprovedForAll(address,address)": "e985e9c5",
        "isTrustedAddress(address)": "0848a136",
        "lockCardDust(uint256[],uint256[],address)": "8aebc916",
        "maxBuyCardStar()": "beba6432",
        "maxCardCreateStar()": "770bdff8",
        "name()": "06fdde03",
        "owner()": "8da5cb5b",
        "ownerOf(uint256)": "6352211e",
        "payToToken()": "95421663",
        "randomPackUris(uint256)": "0e53310a",
        "rechargeCardUseDust(uint256,uint256)": "29adb287",
        "rechargeCards(uint256[],uint256[])": "f9893b8e",
        "removeTrustedAddress(address)": "f9f494ed",
        "safeBatchTransferFrom(address,address,uint256[],uint256[],bytes)": "2eb2c2d6",
        "safeTransferFrom(address,address,uint256,uint256,bytes)": "f242432a",
        "setApprovalForAll(address,bool)": "a22cb465",
        "setBuyCardPackCast(uint256)": "986192cf",
        "setCardMaxType(uint256)": "94c3a1cf",
        "setCardPackBuyerNum(uint256)": "2fa5fe38",
        "setCreateCardCast(uint256)": "ca11e7f0",
        "setDefaultDust(uint256)": "aa7ac1a3",
        "setEntrys(uint256[])": "6f03894f",
        "setEntrysLength(uint256)": "97388126",
        "setMDT(address)": "3130eb5e",
        "setMaxBuyCardStar(uint256)": "ed2ee69d",
        "setMaxCardCreateStar(uint256)": "a5ea0fec",
        "setMiracleDust(address)": "ea8d0b0a",
        "setRandomPackUris(string[])": "8baae43c",
        "setTokenValue(uint256,uint256,uint256,uint256[],uint256[],string)": "f220e4ff",
        "setTrustedAddress(address)": "8cbfc305",
        "setURI(string)": "02fe5305",
        "supportsInterface(bytes4)": "01ffc9a7",
        "symbol()": "95d89b41",
        "transferFrom(address,address,uint256)": "23b872dd",
        "uri(uint256)": "0e89341c",
        "useCard(uint256[])": "38cb8d20",
        "useCast()": "925057fa",
        "useCastProportion()": "6121b0b3"
    },
    "gasEstimates": {
        "creation": {
            "codeDepositCost": "3503600",
            "executionCost": "infinite",
            "totalCost": "infinite"
        },
        "external": {
            "CreateCardByOwner(uint256[],uint256[],uint256,uint256,string)": "infinite",
            "_entrys(uint256)": "4631",
            "_entrysLength()": "2375",
            "allBalance(address)": "infinite",
            "allTokenIds()": "infinite",
            "balanceOf(address)": "infinite",
            "balanceOf(address,uint256)": "2771",
            "balanceOfBatch(address[],uint256[])": "infinite",
            "buyCardPack()": "infinite",
            "buyCardPackCast()": "2352",
            "cardCanUse(address,uint256[])": "infinite",
            "cardMaxType()": "2395",
            "cardPackBuyerNum()": "2354",
            "createCard(uint256,uint256[],string)": "infinite",
            "createCardCast()": "2418",
            "decimals()": "268",
            "getMiracleDustTokenAddress()": "2420",
            "getPayTo()": "2464",
            "getToken(uint256)": "infinite",
            "isApprovedForAll(address,address)": "infinite",
            "isTrustedAddress(address)": "2674",
            "lockCardDust(uint256[],uint256[],address)": "infinite",
            "maxBuyCardStar()": "2374",
            "maxCardCreateStar()": "2395",
            "name()": "infinite",
            "owner()": "2399",
            "ownerOf(uint256)": "infinite",
            "payToToken()": "2471",
            "randomPackUris(uint256)": "infinite",
            "rechargeCardUseDust(uint256,uint256)": "infinite",
            "rechargeCards(uint256[],uint256[])": "infinite",
            "removeTrustedAddress(address)": "26876",
            "safeBatchTransferFrom(address,address,uint256[],uint256[],bytes)": "infinite",
            "safeTransferFrom(address,address,uint256,uint256,bytes)": "infinite",
            "setApprovalForAll(address,bool)": "26717",
            "setBuyCardPackCast(uint256)": "24576",
            "setCardMaxType(uint256)": "24672",
            "setCardPackBuyerNum(uint256)": "24672",
            "setCreateCardCast(uint256)": "24531",
            "setDefaultDust(uint256)": "24693",
            "setEntrys(uint256[])": "infinite",
            "setEntrysLength(uint256)": "24554",
            "setMDT(address)": "24640",
            "setMaxBuyCardStar(uint256)": "24649",
            "setMaxCardCreateStar(uint256)": "24671",
            "setMiracleDust(address)": "26778",
            "setRandomPackUris(string[])": "infinite",
            "setTokenValue(uint256,uint256,uint256,uint256[],uint256[],string)": "infinite",
            "setTrustedAddress(address)": "26863",
            "setURI(string)": "infinite",
            "supportsInterface(bytes4)": "500",
            "symbol()": "infinite",
            "transferFrom(address,address,uint256)": "infinite",
            "uri(uint256)": "infinite",
            "useCard(uint256[])": "infinite",
            "useCast()": "2374",
            "useCastProportion()": "2418"
        },
        "internal": {
            "getRandomCardEntrys(uint256[] memory)": "infinite"
        }
    }
}